{
  "_format": "hh-sol-artifact-1",
  "contractName": "SupplyChain",
  "sourceName": "contracts/SupplyChain.sol",
  "abi": [
    {
      "inputs": [],
      "stateMutability": "nonpayable",
      "type": "constructor"
    },
    {
      "inputs": [
        {
          "internalType": "address",
          "name": "sender",
          "type": "address"
        },
        {
          "internalType": "uint256",
          "name": "tokenId",
          "type": "uint256"
        },
        {
          "internalType": "address",
          "name": "owner",
          "type": "address"
        }
      ],
      "name": "ERC721IncorrectOwner",
      "type": "error"
    },
    {
      "inputs": [
        {
          "internalType": "address",
          "name": "operator",
          "type": "address"
        },
        {
          "internalType": "uint256",
          "name": "tokenId",
          "type": "uint256"
        }
      ],
      "name": "ERC721InsufficientApproval",
      "type": "error"
    },
    {
      "inputs": [
        {
          "internalType": "address",
          "name": "approver",
          "type": "address"
        }
      ],
      "name": "ERC721InvalidApprover",
      "type": "error"
    },
    {
      "inputs": [
        {
          "internalType": "address",
          "name": "operator",
          "type": "address"
        }
      ],
      "name": "ERC721InvalidOperator",
      "type": "error"
    },
    {
      "inputs": [
        {
          "internalType": "address",
          "name": "owner",
          "type": "address"
        }
      ],
      "name": "ERC721InvalidOwner",
      "type": "error"
    },
    {
      "inputs": [
        {
          "internalType": "address",
          "name": "receiver",
          "type": "address"
        }
      ],
      "name": "ERC721InvalidReceiver",
      "type": "error"
    },
    {
      "inputs": [
        {
          "internalType": "address",
          "name": "sender",
          "type": "address"
        }
      ],
      "name": "ERC721InvalidSender",
      "type": "error"
    },
    {
      "inputs": [
        {
          "internalType": "uint256",
          "name": "tokenId",
          "type": "uint256"
        }
      ],
      "name": "ERC721NonexistentToken",
      "type": "error"
    },
    {
      "inputs": [
        {
          "internalType": "address",
          "name": "owner",
          "type": "address"
        }
      ],
      "name": "OwnableInvalidOwner",
      "type": "error"
    },
    {
      "inputs": [
        {
          "internalType": "address",
          "name": "account",
          "type": "address"
        }
      ],
      "name": "OwnableUnauthorizedAccount",
      "type": "error"
    },
    {
      "anonymous": false,
      "inputs": [
        {
          "indexed": true,
          "internalType": "address",
          "name": "owner",
          "type": "address"
        },
        {
          "indexed": true,
          "internalType": "address",
          "name": "approved",
          "type": "address"
        },
        {
          "indexed": true,
          "internalType": "uint256",
          "name": "tokenId",
          "type": "uint256"
        }
      ],
      "name": "Approval",
      "type": "event"
    },
    {
      "anonymous": false,
      "inputs": [
        {
          "indexed": true,
          "internalType": "address",
          "name": "owner",
          "type": "address"
        },
        {
          "indexed": true,
          "internalType": "address",
          "name": "operator",
          "type": "address"
        },
        {
          "indexed": false,
          "internalType": "bool",
          "name": "approved",
          "type": "bool"
        }
      ],
      "name": "ApprovalForAll",
      "type": "event"
    },
    {
      "anonymous": false,
      "inputs": [
        {
          "indexed": false,
          "internalType": "uint256",
          "name": "_fromTokenId",
          "type": "uint256"
        },
        {
          "indexed": false,
          "internalType": "uint256",
          "name": "_toTokenId",
          "type": "uint256"
        }
      ],
      "name": "BatchMetadataUpdate",
      "type": "event"
    },
    {
      "anonymous": false,
      "inputs": [
        {
          "indexed": false,
          "internalType": "string",
          "name": "message",
          "type": "string"
        }
      ],
      "name": "ManagerEvent",
      "type": "event"
    },
    {
      "anonymous": false,
      "inputs": [
        {
          "indexed": false,
          "internalType": "uint256",
          "name": "_tokenId",
          "type": "uint256"
        }
      ],
      "name": "MetadataUpdate",
      "type": "event"
    },
    {
      "anonymous": false,
      "inputs": [
        {
          "indexed": true,
          "internalType": "address",
          "name": "previousOwner",
          "type": "address"
        },
        {
          "indexed": true,
          "internalType": "address",
          "name": "newOwner",
          "type": "address"
        }
      ],
      "name": "OwnershipTransferred",
      "type": "event"
    },
    {
      "anonymous": false,
      "inputs": [
        {
          "indexed": true,
          "internalType": "address",
          "name": "remover",
          "type": "address"
        },
        {
          "indexed": true,
          "internalType": "uint256",
          "name": "productId",
          "type": "uint256"
        }
      ],
      "name": "ProductDeleted",
      "type": "event"
    },
    {
      "anonymous": false,
      "inputs": [
        {
          "indexed": true,
          "internalType": "uint256",
          "name": "productId",
          "type": "uint256"
        },
        {
          "indexed": true,
          "internalType": "address",
          "name": "buyer",
          "type": "address"
        },
        {
          "indexed": false,
          "internalType": "uint256",
          "name": "price",
          "type": "uint256"
        }
      ],
      "name": "ProductPurchased",
      "type": "event"
    },
    {
      "anonymous": false,
      "inputs": [
        {
          "indexed": true,
          "internalType": "uint256",
          "name": "productId",
          "type": "uint256"
        },
        {
          "indexed": false,
          "internalType": "string",
          "name": "newStatus",
          "type": "string"
        },
        {
          "indexed": false,
          "internalType": "uint256",
          "name": "timestamp",
          "type": "uint256"
        }
      ],
      "name": "StatusUpdated",
      "type": "event"
    },
    {
      "anonymous": false,
      "inputs": [
        {
          "indexed": true,
          "internalType": "address",
          "name": "from",
          "type": "address"
        },
        {
          "indexed": true,
          "internalType": "address",
          "name": "to",
          "type": "address"
        },
        {
          "indexed": true,
          "internalType": "uint256",
          "name": "tokenId",
          "type": "uint256"
        }
      ],
      "name": "Transfer",
      "type": "event"
    },
    {
      "inputs": [
        {
          "internalType": "uint256",
          "name": "",
          "type": "uint256"
        }
      ],
      "name": "allProducts",
      "outputs": [
        {
          "internalType": "uint256",
          "name": "id",
          "type": "uint256"
        },
        {
          "internalType": "string",
          "name": "name",
          "type": "string"
        },
        {
          "internalType": "address",
          "name": "owner",
          "type": "address"
        },
        {
          "internalType": "uint256",
          "name": "price",
          "type": "uint256"
        },
        {
          "internalType": "bool",
          "name": "bought",
          "type": "bool"
        },
        {
          "internalType": "string",
          "name": "imageURL",
          "type": "string"
        },
        {
          "internalType": "uint256",
          "name": "purchaseTime",
          "type": "uint256"
        }
      ],
      "stateMutability": "view",
      "type": "function"
    },
    {
      "inputs": [
        {
          "internalType": "address",
          "name": "to",
          "type": "address"
        },
        {
          "internalType": "uint256",
          "name": "tokenId",
          "type": "uint256"
        }
      ],
      "name": "approve",
      "outputs": [],
      "stateMutability": "nonpayable",
      "type": "function"
    },
    {
      "inputs": [
        {
          "internalType": "address",
          "name": "owner",
          "type": "address"
        }
      ],
      "name": "balanceOf",
      "outputs": [
        {
          "internalType": "uint256",
          "name": "",
          "type": "uint256"
        }
      ],
      "stateMutability": "view",
      "type": "function"
    },
    {
      "inputs": [],
      "name": "current_Id",
      "outputs": [
        {
          "internalType": "uint256",
          "name": "",
          "type": "uint256"
        }
      ],
      "stateMutability": "view",
      "type": "function"
    },
    {
      "inputs": [],
      "name": "deleteBoughtProducts",
      "outputs": [],
      "stateMutability": "nonpayable",
      "type": "function"
    },
    {
      "inputs": [
        {
          "internalType": "uint256",
          "name": "tokenId",
          "type": "uint256"
        }
      ],
      "name": "getApproved",
      "outputs": [
        {
          "internalType": "address",
          "name": "",
          "type": "address"
        }
      ],
      "stateMutability": "view",
      "type": "function"
    },
    {
      "inputs": [],
      "name": "getManager",
      "outputs": [
        {
          "internalType": "address",
          "name": "",
          "type": "address"
        }
      ],
      "stateMutability": "view",
      "type": "function"
    },
    {
      "inputs": [
        {
          "internalType": "uint256",
          "name": "_productId",
          "type": "uint256"
        }
      ],
      "name": "getProductById",
      "outputs": [
        {
          "components": [
            {
              "internalType": "uint256",
              "name": "id",
              "type": "uint256"
            },
            {
              "internalType": "string",
              "name": "name",
              "type": "string"
            },
            {
              "internalType": "address",
              "name": "owner",
              "type": "address"
            },
            {
              "internalType": "uint256",
              "name": "price",
              "type": "uint256"
            },
            {
              "internalType": "bool",
              "name": "bought",
              "type": "bool"
            },
            {
              "internalType": "string",
              "name": "imageURL",
              "type": "string"
            },
            {
              "internalType": "uint256",
              "name": "purchaseTime",
              "type": "uint256"
            },
            {
              "components": [
                {
                  "internalType": "string",
                  "name": "status",
                  "type": "string"
                },
                {
                  "internalType": "uint256",
                  "name": "timestamp",
                  "type": "uint256"
                }
              ],
              "internalType": "struct SupplyChain.Status[]",
              "name": "statusHistory",
              "type": "tuple[]"
            }
          ],
          "internalType": "struct SupplyChain.Product",
          "name": "",
          "type": "tuple"
        }
      ],
      "stateMutability": "view",
      "type": "function"
    },
    {
      "inputs": [],
      "name": "getProducts",
      "outputs": [
        {
          "components": [
            {
              "internalType": "uint256",
              "name": "id",
              "type": "uint256"
            },
            {
              "internalType": "string",
              "name": "name",
              "type": "string"
            },
            {
              "internalType": "address",
              "name": "owner",
              "type": "address"
            },
            {
              "internalType": "uint256",
              "name": "price",
              "type": "uint256"
            },
            {
              "internalType": "bool",
              "name": "bought",
              "type": "bool"
            },
            {
              "internalType": "string",
              "name": "imageURL",
              "type": "string"
            },
            {
              "internalType": "uint256",
              "name": "purchaseTime",
              "type": "uint256"
            },
            {
              "components": [
                {
                  "internalType": "string",
                  "name": "status",
                  "type": "string"
                },
                {
                  "internalType": "uint256",
                  "name": "timestamp",
                  "type": "uint256"
                }
              ],
              "internalType": "struct SupplyChain.Status[]",
              "name": "statusHistory",
              "type": "tuple[]"
            }
          ],
          "internalType": "struct SupplyChain.Product[]",
          "name": "",
          "type": "tuple[]"
        }
      ],
      "stateMutability": "view",
      "type": "function"
    },
    {
      "inputs": [
        {
          "internalType": "address",
          "name": "owner",
          "type": "address"
        },
        {
          "internalType": "address",
          "name": "operator",
          "type": "address"
        }
      ],
      "name": "isApprovedForAll",
      "outputs": [
        {
          "internalType": "bool",
          "name": "",
          "type": "bool"
        }
      ],
      "stateMutability": "view",
      "type": "function"
    },
    {
      "inputs": [],
      "name": "manager",
      "outputs": [
        {
          "internalType": "address",
          "name": "",
          "type": "address"
        }
      ],
      "stateMutability": "view",
      "type": "function"
    },
    {
      "inputs": [],
      "name": "name",
      "outputs": [
        {
          "internalType": "string",
          "name": "",
          "type": "string"
        }
      ],
      "stateMutability": "view",
      "type": "function"
    },
    {
      "inputs": [],
      "name": "owner",
      "outputs": [
        {
          "internalType": "address",
          "name": "",
          "type": "address"
        }
      ],
      "stateMutability": "view",
      "type": "function"
    },
    {
      "inputs": [
        {
          "internalType": "uint256",
          "name": "tokenId",
          "type": "uint256"
        }
      ],
      "name": "ownerOf",
      "outputs": [
        {
          "internalType": "address",
          "name": "",
          "type": "address"
        }
      ],
      "stateMutability": "view",
      "type": "function"
    },
    {
      "inputs": [
        {
          "internalType": "uint256",
          "name": "",
          "type": "uint256"
        }
      ],
      "name": "products",
      "outputs": [
        {
          "internalType": "uint256",
          "name": "id",
          "type": "uint256"
        },
        {
          "internalType": "string",
          "name": "name",
          "type": "string"
        },
        {
          "internalType": "address",
          "name": "owner",
          "type": "address"
        },
        {
          "internalType": "uint256",
          "name": "price",
          "type": "uint256"
        },
        {
          "internalType": "bool",
          "name": "bought",
          "type": "bool"
        },
        {
          "internalType": "string",
          "name": "imageURL",
          "type": "string"
        },
        {
          "internalType": "uint256",
          "name": "purchaseTime",
          "type": "uint256"
        }
      ],
      "stateMutability": "view",
      "type": "function"
    },
    {
      "inputs": [
        {
          "internalType": "uint256",
          "name": "_productId",
          "type": "uint256"
        }
      ],
      "name": "purchaseProduct",
      "outputs": [],
      "stateMutability": "payable",
      "type": "function"
    },
    {
      "inputs": [
        {
          "internalType": "string",
          "name": "_name",
          "type": "string"
        },
        {
          "internalType": "string",
          "name": "_tokenURI",
          "type": "string"
        },
        {
          "internalType": "uint256",
          "name": "_price",
          "type": "uint256"
        }
      ],
      "name": "registerProduct",
      "outputs": [],
      "stateMutability": "nonpayable",
      "type": "function"
    },
    {
      "inputs": [],
      "name": "renounceOwnership",
      "outputs": [],
      "stateMutability": "nonpayable",
      "type": "function"
    },
    {
      "inputs": [
        {
          "internalType": "address",
          "name": "from",
          "type": "address"
        },
        {
          "internalType": "address",
          "name": "to",
          "type": "address"
        },
        {
          "internalType": "uint256",
          "name": "tokenId",
          "type": "uint256"
        }
      ],
      "name": "safeTransferFrom",
      "outputs": [],
      "stateMutability": "nonpayable",
      "type": "function"
    },
    {
      "inputs": [
        {
          "internalType": "address",
          "name": "from",
          "type": "address"
        },
        {
          "internalType": "address",
          "name": "to",
          "type": "address"
        },
        {
          "internalType": "uint256",
          "name": "tokenId",
          "type": "uint256"
        },
        {
          "internalType": "bytes",
          "name": "data",
          "type": "bytes"
        }
      ],
      "name": "safeTransferFrom",
      "outputs": [],
      "stateMutability": "nonpayable",
      "type": "function"
    },
    {
      "inputs": [
        {
          "internalType": "address",
          "name": "operator",
          "type": "address"
        },
        {
          "internalType": "bool",
          "name": "approved",
          "type": "bool"
        }
      ],
      "name": "setApprovalForAll",
      "outputs": [],
      "stateMutability": "nonpayable",
      "type": "function"
    },
    {
      "inputs": [
        {
          "internalType": "bytes4",
          "name": "interfaceId",
          "type": "bytes4"
        }
      ],
      "name": "supportsInterface",
      "outputs": [
        {
          "internalType": "bool",
          "name": "",
          "type": "bool"
        }
      ],
      "stateMutability": "view",
      "type": "function"
    },
    {
      "inputs": [],
      "name": "symbol",
      "outputs": [
        {
          "internalType": "string",
          "name": "",
          "type": "string"
        }
      ],
      "stateMutability": "view",
      "type": "function"
    },
    {
      "inputs": [
        {
          "internalType": "uint256",
          "name": "tokenId",
          "type": "uint256"
        }
      ],
      "name": "tokenExists",
      "outputs": [
        {
          "internalType": "bool",
          "name": "",
          "type": "bool"
        }
      ],
      "stateMutability": "view",
      "type": "function"
    },
    {
      "inputs": [
        {
          "internalType": "uint256",
          "name": "tokenId",
          "type": "uint256"
        }
      ],
      "name": "tokenURI",
      "outputs": [
        {
          "internalType": "string",
          "name": "",
          "type": "string"
        }
      ],
      "stateMutability": "view",
      "type": "function"
    },
    {
      "inputs": [
        {
          "internalType": "address",
          "name": "from",
          "type": "address"
        },
        {
          "internalType": "address",
          "name": "to",
          "type": "address"
        },
        {
          "internalType": "uint256",
          "name": "tokenId",
          "type": "uint256"
        }
      ],
      "name": "transferFrom",
      "outputs": [],
      "stateMutability": "nonpayable",
      "type": "function"
    },
    {
      "inputs": [
        {
          "internalType": "address",
          "name": "newOwner",
          "type": "address"
        }
      ],
      "name": "transferOwnership",
      "outputs": [],
      "stateMutability": "nonpayable",
      "type": "function"
    }
  ],
  "bytecode": "0x60806040523480156200001157600080fd5b50336040518060400160405280601281526020017f537570706c79436861696e50726f6475637400000000000000000000000000008152506040518060400160405280600381526020017f53435000000000000000000000000000000000000000000000000000000000008152508160009081620000909190620004b3565b508060019081620000a29190620004b3565b505050600073ffffffffffffffffffffffffffffffffffffffff168173ffffffffffffffffffffffffffffffffffffffff16036200011a5760006040517f1e4fbdf7000000000000000000000000000000000000000000000000000000008152600401620001119190620005df565b60405180910390fd5b6200012b816200017360201b60201c565b5033600960006101000a81548173ffffffffffffffffffffffffffffffffffffffff021916908373ffffffffffffffffffffffffffffffffffffffff160217905550620005fc565b6000600760009054906101000a900473ffffffffffffffffffffffffffffffffffffffff16905081600760006101000a81548173ffffffffffffffffffffffffffffffffffffffff021916908373ffffffffffffffffffffffffffffffffffffffff1602179055508173ffffffffffffffffffffffffffffffffffffffff168173ffffffffffffffffffffffffffffffffffffffff167f8be0079c531659141344cd1fd0a4f28419497f9722a3daafe3b4186f6b6457e060405160405180910390a35050565b600081519050919050565b7f4e487b7100000000000000000000000000000000000000000000000000000000600052604160045260246000fd5b7f4e487b7100000000000000000000000000000000000000000000000000000000600052602260045260246000fd5b60006002820490506001821680620002bb57607f821691505b602082108103620002d157620002d062000273565b5b50919050565b60008190508160005260206000209050919050565b60006020601f8301049050919050565b600082821b905092915050565b6000600883026200033b7fffffffffffffffffffffffffffffffffffffffffffffffffffffffffffffffff82620002fc565b620003478683620002fc565b95508019841693508086168417925050509392505050565b6000819050919050565b6000819050919050565b6000620003946200038e62000388846200035f565b62000369565b6200035f565b9050919050565b6000819050919050565b620003b08362000373565b620003c8620003bf826200039b565b84845462000309565b825550505050565b600090565b620003df620003d0565b620003ec818484620003a5565b505050565b5b81811015620004145762000408600082620003d5565b600181019050620003f2565b5050565b601f82111562000463576200042d81620002d7565b6200043884620002ec565b8101602085101562000448578190505b620004606200045785620002ec565b830182620003f1565b50505b505050565b600082821c905092915050565b6000620004886000198460080262000468565b1980831691505092915050565b6000620004a3838362000475565b9150826002028217905092915050565b620004be8262000239565b67ffffffffffffffff811115620004da57620004d962000244565b5b620004e68254620002a2565b620004f382828562000418565b600060209050601f8311600181146200052b576000841562000516578287015190505b62000522858262000495565b86555062000592565b601f1984166200053b86620002d7565b60005b8281101562000565578489015182556001820191506020850194506020810190506200053e565b8683101562000585578489015162000581601f89168262000475565b8355505b6001600288020188555050505b505050505050565b600073ffffffffffffffffffffffffffffffffffffffff82169050919050565b6000620005c7826200059a565b9050919050565b620005d981620005ba565b82525050565b6000602082019050620005f66000830184620005ce565b92915050565b614c05806200060c6000396000f3fe60806040526004361061019b5760003560e01c80636e2f4ef9116100ec578063b88d4fde1161008a578063cfaaef5611610064578063cfaaef56146105d0578063d500958414610613578063e985e9c51461063e578063f2fde38b1461067b5761019b565b8063b88d4fde1461053f578063c29b2f2014610568578063c87b56dd146105935761019b565b80637acc0b20116100c65780637acc0b201461047d5780638da5cb5b146104c057806395d89b41146104eb578063a22cb465146105165761019b565b80636e2f4ef9146103fe57806370a0823114610429578063715018a6146104665761019b565b80633153a15b116101595780633f70c2b4116101335780633f70c2b41461033057806342842e0e1461036d578063481c6a75146103965780636352211e146103c15761019b565b80633153a15b146102d457806331d05686146102fd57806338e76a03146103145761019b565b8062923f9e146101a057806301ffc9a7146101dd57806306fdde031461021a578063081812fc14610245578063095ea7b31461028257806323b872dd146102ab575b600080fd5b3480156101ac57600080fd5b506101c760048036038101906101c291906135f0565b6106a4565b6040516101d49190613638565b60405180910390f35b3480156101e957600080fd5b5061020460048036038101906101ff91906136ab565b6106e5565b6040516102119190613638565b60405180910390f35b34801561022657600080fd5b5061022f610746565b60405161023c9190613768565b60405180910390f35b34801561025157600080fd5b5061026c600480360381019061026791906135f0565b6107d8565b60405161027991906137cb565b60405180910390f35b34801561028e57600080fd5b506102a960048036038101906102a49190613812565b6107f4565b005b3480156102b757600080fd5b506102d260048036038101906102cd9190613852565b61080a565b005b3480156102e057600080fd5b506102fb60048036038101906102f691906139da565b61090c565b005b34801561030957600080fd5b50610312610ca1565b005b61032e600480360381019061032991906135f0565b610e8f565b005b34801561033c57600080fd5b50610357600480360381019061035291906135f0565b611392565b6040516103649190613c99565b60405180910390f35b34801561037957600080fd5b50610394600480360381019061038f9190613852565b6116b6565b005b3480156103a257600080fd5b506103ab6116d6565b6040516103b891906137cb565b60405180910390f35b3480156103cd57600080fd5b506103e860048036038101906103e391906135f0565b6116fc565b6040516103f591906137cb565b60405180910390f35b34801561040a57600080fd5b5061041361170e565b6040516104209190613cca565b60405180910390f35b34801561043557600080fd5b50610450600480360381019061044b9190613ce5565b611714565b60405161045d9190613cca565b60405180910390f35b34801561047257600080fd5b5061047b6117ce565b005b34801561048957600080fd5b506104a4600480360381019061049f91906135f0565b6117e2565b6040516104b79796959493929190613d12565b60405180910390f35b3480156104cc57600080fd5b506104d5611961565b6040516104e291906137cb565b60405180910390f35b3480156104f757600080fd5b5061050061198b565b60405161050d9190613768565b60405180910390f35b34801561052257600080fd5b5061053d60048036038101906105389190613dbb565b611a1d565b005b34801561054b57600080fd5b5061056660048036038101906105619190613e9c565b611a33565b005b34801561057457600080fd5b5061057d611a50565b60405161058a919061409f565b60405180910390f35b34801561059f57600080fd5b506105ba60048036038101906105b591906135f0565b611e14565b6040516105c79190613768565b60405180910390f35b3480156105dc57600080fd5b506105f760048036038101906105f291906135f0565b611f27565b60405161060a9796959493929190613d12565b60405180910390f35b34801561061f57600080fd5b506106286120b6565b60405161063591906137cb565b60405180910390f35b34801561064a57600080fd5b50610665600480360381019061066091906140c1565b6120e0565b6040516106729190613638565b60405180910390f35b34801561068757600080fd5b506106a2600480360381019061069d9190613ce5565b612174565b005b60008073ffffffffffffffffffffffffffffffffffffffff166106c6836116fc565b73ffffffffffffffffffffffffffffffffffffffff1614159050919050565b6000634906490660e01b7bffffffffffffffffffffffffffffffffffffffffffffffffffffffff1916827bffffffffffffffffffffffffffffffffffffffffffffffffffffffff1916148061073f575061073e826121fa565b5b9050919050565b60606000805461075590614130565b80601f016020809104026020016040519081016040528092919081815260200182805461078190614130565b80156107ce5780601f106107a3576101008083540402835291602001916107ce565b820191906000526020600020905b8154815290600101906020018083116107b157829003601f168201915b5050505050905090565b60006107e3826122dc565b506107ed82612364565b9050919050565b61080682826108016123a1565b6123a9565b5050565b600073ffffffffffffffffffffffffffffffffffffffff168273ffffffffffffffffffffffffffffffffffffffff160361087c5760006040517f64a0ae9200000000000000000000000000000000000000000000000000000000815260040161087391906137cb565b60405180910390fd5b6000610890838361088b6123a1565b6123bb565b90508373ffffffffffffffffffffffffffffffffffffffff168173ffffffffffffffffffffffffffffffffffffffff1614610906578382826040517f64283d7b0000000000000000000000000000000000000000000000000000000081526004016108fd93929190614161565b60405180910390fd5b50505050565b610914611961565b73ffffffffffffffffffffffffffffffffffffffff163373ffffffffffffffffffffffffffffffffffffffff1603610981576040517f08c379a0000000000000000000000000000000000000000000000000000000008152600401610978906141e4565b60405180910390fd5b7f9d53e88f334fd87b68576ec6f1f7dc09bc10bbee6838707e7276feec62595dd96040516109ae90614250565b60405180910390a16109c2336008546125d5565b6109ce600854836126ce565b600060405180604001604052806040518060400160405280600a81526020017f526567697374657265640000000000000000000000000000000000000000000081525081526020014281525090506000600a600060085481526020019081526020016000209050600854816000018190555084816001019081610a51919061441c565b50338160020160006101000a81548173ffffffffffffffffffffffffffffffffffffffff021916908373ffffffffffffffffffffffffffffffffffffffff16021790555082816003018190555083816005019081610aaf919061441c565b5060008160040160006101000a81548160ff02191690831515021790555060008160060181905550806007018290806001815401808255809150506001900390600052602060002090600202016000909190919091506000820151816000019081610b1a919061441c565b50602082015181600101555050600b8190806001815401808255809150506001900390600052602060002090600802016000909190919091506000820154816000015560018201816001019081610b719190614504565b506002820160009054906101000a900473ffffffffffffffffffffffffffffffffffffffff168160020160006101000a81548173ffffffffffffffffffffffffffffffffffffffff021916908373ffffffffffffffffffffffffffffffffffffffff160217905550600382015481600301556004820160009054906101000a900460ff168160040160006101000a81548160ff02191690831515021790555060058201816005019081610c249190614504565b50600682015481600601556007820181600701908054610c45929190613422565b50505060086000815480929190610c5b9061461b565b91905055506008547f8f06a6a7dcdfa9dacca5f151d0d13cd9437b0faa08953456979391d13f4d346f42604051610c9291906146af565b60405180910390a25050505050565b610ca9611961565b73ffffffffffffffffffffffffffffffffffffffff163373ffffffffffffffffffffffffffffffffffffffff1614610d16576040517f08c379a0000000000000000000000000000000000000000000000000000000008152600401610d0d90614729565b60405180910390fd5b7f9d53e88f334fd87b68576ec6f1f7dc09bc10bbee6838707e7276feec62595dd9604051610d4390614795565b60405180910390a16000600854905060005b81811015610e8b57610d66816106a4565b8015610d925750600a600082815260200190815260200160002060040160009054906101000a900460ff165b15610e7e57610da08161272a565b600a6000828152602001908152602001600020600080820160009055600182016000610dcc9190613499565b6002820160006101000a81549073ffffffffffffffffffffffffffffffffffffffff021916905560038201600090556004820160006101000a81549060ff0219169055600582016000610e1f9190613499565b6006820160009055600782016000610e3791906134d9565b5050803373ffffffffffffffffffffffffffffffffffffffff167fbe7adc0c94eec4e7e48a6db6cbea2a3d149250216e5ac019b84bd825a3b6917060405160405180910390a35b8080600101915050610d55565b5050565b610e97611961565b73ffffffffffffffffffffffffffffffffffffffff163373ffffffffffffffffffffffffffffffffffffffff1603610f04576040517f08c379a0000000000000000000000000000000000000000000000000000000008152600401610efb906141e4565b60405180910390fd5b7f9d53e88f334fd87b68576ec6f1f7dc09bc10bbee6838707e7276feec62595dd9604051610f3190614250565b60405180910390a1600a600082815260200190815260200160002060070160405180604001604052806040518060400160405280601381526020017f50757263686173652070656e64696e672e2e2e0000000000000000000000000081525081526020014281525090806001815401808255809150506001900390600052602060002090600202016000909190919091506000820151816000019081610fd7919061441c565b50602082015181600101555050610fed816106a4565b61102c576040517f08c379a000000000000000000000000000000000000000000000000000000000815260040161102390614801565b60405180910390fd5b600a600082815260200190815260200160002060040160009054906101000a900460ff1615611090576040517f08c379a00000000000000000000000000000000000000000000000000000000081526004016110879061486d565b60405180910390fd5b600a60008281526020019081526020016000206003015434146110e8576040517f08c379a00000000000000000000000000000000000000000000000000000000081526004016110df906148d9565b60405180910390fd5b3373ffffffffffffffffffffffffffffffffffffffff16611108826116fc565b73ffffffffffffffffffffffffffffffffffffffff160361115e576040517f08c379a00000000000000000000000000000000000000000000000000000000081526004016111559061496b565b60405180910390fd5b6000611169826116fc565b90506111768133846127b0565b8073ffffffffffffffffffffffffffffffffffffffff166108fc349081150290604051600060405180830381858888f193505050501580156111bc573d6000803e3d6000fd5b5033600a600084815260200190815260200160002060020160006101000a81548173ffffffffffffffffffffffffffffffffffffffff021916908373ffffffffffffffffffffffffffffffffffffffff16021790555042600a6000848152602001908152602001600020600601819055506001600a600084815260200190815260200160002060040160006101000a81548160ff021916908315150217905550600a600083815260200190815260200160002060070160405180604001604052806040518060400160405280600981526020017f5075726368617365640000000000000000000000000000000000000000000000815250815260200142815250908060018154018082558091505060019003906000526020600020906002020160009091909190915060008201518160000190816112fa919061441c565b50602082015181600101555050817f8f06a6a7dcdfa9dacca5f151d0d13cd9437b0faa08953456979391d13f4d346f4260405161133791906149d7565b60405180910390a23373ffffffffffffffffffffffffffffffffffffffff16827fa530f889d7f1bd9a73028e48944ca013ab2c6624a31e3fa26f923f4bb719abd5346040516113869190613cca565b60405180910390a35050565b61139a6134fd565b6113a3826106a4565b6113e2576040517f08c379a00000000000000000000000000000000000000000000000000000000081526004016113d990614801565b60405180910390fd5b600a6000838152602001908152602001600020604051806101000160405290816000820154815260200160018201805461141b90614130565b80601f016020809104026020016040519081016040528092919081815260200182805461144790614130565b80156114945780601f1061146957610100808354040283529160200191611494565b820191906000526020600020905b81548152906001019060200180831161147757829003601f168201915b505050505081526020016002820160009054906101000a900473ffffffffffffffffffffffffffffffffffffffff1673ffffffffffffffffffffffffffffffffffffffff1673ffffffffffffffffffffffffffffffffffffffff168152602001600382015481526020016004820160009054906101000a900460ff1615151515815260200160058201805461152890614130565b80601f016020809104026020016040519081016040528092919081815260200182805461155490614130565b80156115a15780601f10611576576101008083540402835291602001916115a1565b820191906000526020600020905b81548152906001019060200180831161158457829003601f168201915b505050505081526020016006820154815260200160078201805480602002602001604051908101604052809291908181526020016000905b828210156116a7578382906000526020600020906002020160405180604001604052908160008201805461160c90614130565b80601f016020809104026020016040519081016040528092919081815260200182805461163890614130565b80156116855780601f1061165a57610100808354040283529160200191611685565b820191906000526020600020905b81548152906001019060200180831161166857829003601f168201915b50505050508152602001600182015481525050815260200190600101906115d9565b50505050815250509050919050565b6116d183838360405180602001604052806000815250611a33565b505050565b600960009054906101000a900473ffffffffffffffffffffffffffffffffffffffff1681565b6000611707826122dc565b9050919050565b60085481565b60008073ffffffffffffffffffffffffffffffffffffffff168273ffffffffffffffffffffffffffffffffffffffff16036117875760006040517f89c62b6400000000000000000000000000000000000000000000000000000000815260040161177e91906137cb565b60405180910390fd5b600360008373ffffffffffffffffffffffffffffffffffffffff1673ffffffffffffffffffffffffffffffffffffffff168152602001908152602001600020549050919050565b6117d661291d565b6117e060006129a4565b565b600a60205280600052604060002060009150905080600001549080600101805461180b90614130565b80601f016020809104026020016040519081016040528092919081815260200182805461183790614130565b80156118845780601f1061185957610100808354040283529160200191611884565b820191906000526020600020905b81548152906001019060200180831161186757829003601f168201915b5050505050908060020160009054906101000a900473ffffffffffffffffffffffffffffffffffffffff16908060030154908060040160009054906101000a900460ff16908060050180546118d890614130565b80601f016020809104026020016040519081016040528092919081815260200182805461190490614130565b80156119515780601f1061192657610100808354040283529160200191611951565b820191906000526020600020905b81548152906001019060200180831161193457829003601f168201915b5050505050908060060154905087565b6000600760009054906101000a900473ffffffffffffffffffffffffffffffffffffffff16905090565b60606001805461199a90614130565b80601f01602080910402602001604051908101604052809291908181526020018280546119c690614130565b8015611a135780601f106119e857610100808354040283529160200191611a13565b820191906000526020600020905b8154815290600101906020018083116119f657829003601f168201915b5050505050905090565b611a2f611a286123a1565b8383612a6a565b5050565b611a3e84848461080a565b611a4a84848484612bd9565b50505050565b6060600060085490506000805b82811015611a8f57611a6e816106a4565b15611a82578180611a7e9061461b565b9250505b8080600101915050611a5d565b5060008167ffffffffffffffff811115611aac57611aab6138af565b5b604051908082528060200260200182016040528015611ae557816020015b611ad26134fd565b815260200190600190039081611aca5790505b5090506000805b84811015611e0957611afd816106a4565b15611dfc57600a60008281526020019081526020016000206040518061010001604052908160008201548152602001600182018054611b3b90614130565b80601f0160208091040260200160405190810160405280929190818152602001828054611b6790614130565b8015611bb45780601f10611b8957610100808354040283529160200191611bb4565b820191906000526020600020905b815481529060010190602001808311611b9757829003601f168201915b505050505081526020016002820160009054906101000a900473ffffffffffffffffffffffffffffffffffffffff1673ffffffffffffffffffffffffffffffffffffffff1673ffffffffffffffffffffffffffffffffffffffff168152602001600382015481526020016004820160009054906101000a900460ff16151515158152602001600582018054611c4890614130565b80601f0160208091040260200160405190810160405280929190818152602001828054611c7490614130565b8015611cc15780601f10611c9657610100808354040283529160200191611cc1565b820191906000526020600020905b815481529060010190602001808311611ca457829003601f168201915b505050505081526020016006820154815260200160078201805480602002602001604051908101604052809291908181526020016000905b82821015611dc75783829060005260206000209060020201604051806040016040529081600082018054611d2c90614130565b80601f0160208091040260200160405190810160405280929190818152602001828054611d5890614130565b8015611da55780601f10611d7a57610100808354040283529160200191611da5565b820191906000526020600020905b815481529060010190602001808311611d8857829003601f168201915b5050505050815260200160018201548152505081526020019060010190611cf9565b5050505081525050838381518110611de257611de1614a05565b5b60200260200101819052508180611df89061461b565b9250505b8080600101915050611aec565b508194505050505090565b6060611e1f826122dc565b506000600660008481526020019081526020016000208054611e4090614130565b80601f0160208091040260200160405190810160405280929190818152602001828054611e6c90614130565b8015611eb95780601f10611e8e57610100808354040283529160200191611eb9565b820191906000526020600020905b815481529060010190602001808311611e9c57829003601f168201915b505050505090506000611eca612d90565b90506000815103611edf578192505050611f22565b600082511115611f14578082604051602001611efc929190614a70565b60405160208183030381529060405292505050611f22565b611f1d84612da7565b925050505b919050565b600b8181548110611f3757600080fd5b9060005260206000209060080201600091509050806000015490806001018054611f6090614130565b80601f0160208091040260200160405190810160405280929190818152602001828054611f8c90614130565b8015611fd95780601f10611fae57610100808354040283529160200191611fd9565b820191906000526020600020905b815481529060010190602001808311611fbc57829003601f168201915b5050505050908060020160009054906101000a900473ffffffffffffffffffffffffffffffffffffffff16908060030154908060040160009054906101000a900460ff169080600501805461202d90614130565b80601f016020809104026020016040519081016040528092919081815260200182805461205990614130565b80156120a65780601f1061207b576101008083540402835291602001916120a6565b820191906000526020600020905b81548152906001019060200180831161208957829003601f168201915b5050505050908060060154905087565b6000600960009054906101000a900473ffffffffffffffffffffffffffffffffffffffff16905090565b6000600560008473ffffffffffffffffffffffffffffffffffffffff1673ffffffffffffffffffffffffffffffffffffffff16815260200190815260200160002060008373ffffffffffffffffffffffffffffffffffffffff1673ffffffffffffffffffffffffffffffffffffffff16815260200190815260200160002060009054906101000a900460ff16905092915050565b61217c61291d565b600073ffffffffffffffffffffffffffffffffffffffff168173ffffffffffffffffffffffffffffffffffffffff16036121ee5760006040517f1e4fbdf70000000000000000000000000000000000000000000000000000000081526004016121e591906137cb565b60405180910390fd5b6121f7816129a4565b50565b60007f80ac58cd000000000000000000000000000000000000000000000000000000007bffffffffffffffffffffffffffffffffffffffffffffffffffffffff1916827bffffffffffffffffffffffffffffffffffffffffffffffffffffffff191614806122c557507f5b5e139f000000000000000000000000000000000000000000000000000000007bffffffffffffffffffffffffffffffffffffffffffffffffffffffff1916827bffffffffffffffffffffffffffffffffffffffffffffffffffffffff1916145b806122d557506122d482612e10565b5b9050919050565b6000806122e883612e7a565b9050600073ffffffffffffffffffffffffffffffffffffffff168173ffffffffffffffffffffffffffffffffffffffff160361235b57826040517f7e2732890000000000000000000000000000000000000000000000000000000081526004016123529190613cca565b60405180910390fd5b80915050919050565b60006004600083815260200190815260200160002060009054906101000a900473ffffffffffffffffffffffffffffffffffffffff169050919050565b600033905090565b6123b68383836001612eb7565b505050565b6000806123c784612e7a565b9050600073ffffffffffffffffffffffffffffffffffffffff168373ffffffffffffffffffffffffffffffffffffffff16146124095761240881848661307c565b5b600073ffffffffffffffffffffffffffffffffffffffff168173ffffffffffffffffffffffffffffffffffffffff161461249a5761244b600085600080612eb7565b6001600360008373ffffffffffffffffffffffffffffffffffffffff1673ffffffffffffffffffffffffffffffffffffffff168152602001908152602001600020600082825403925050819055505b600073ffffffffffffffffffffffffffffffffffffffff168573ffffffffffffffffffffffffffffffffffffffff161461251d576001600360008773ffffffffffffffffffffffffffffffffffffffff1673ffffffffffffffffffffffffffffffffffffffff168152602001908152602001600020600082825401925050819055505b846002600086815260200190815260200160002060006101000a81548173ffffffffffffffffffffffffffffffffffffffff021916908373ffffffffffffffffffffffffffffffffffffffff160217905550838573ffffffffffffffffffffffffffffffffffffffff168273ffffffffffffffffffffffffffffffffffffffff167fddf252ad1be2c89b69c2b068fc378daa952ba7f163c4a11628f55a4df523b3ef60405160405180910390a4809150509392505050565b600073ffffffffffffffffffffffffffffffffffffffff168273ffffffffffffffffffffffffffffffffffffffff16036126475760006040517f64a0ae9200000000000000000000000000000000000000000000000000000000815260040161263e91906137cb565b60405180910390fd5b6000612655838360006123bb565b9050600073ffffffffffffffffffffffffffffffffffffffff168173ffffffffffffffffffffffffffffffffffffffff16146126c95760006040517f73c6ac6e0000000000000000000000000000000000000000000000000000000081526004016126c091906137cb565b60405180910390fd5b505050565b806006600084815260200190815260200160002090816126ee919061441c565b507ff8e1a15aba9398e019f0b49df1a4fde98ee17ae345cb5f6b5e2c27f5033e8ce78260405161271e9190613cca565b60405180910390a15050565b600061273960008360006123bb565b9050600073ffffffffffffffffffffffffffffffffffffffff168173ffffffffffffffffffffffffffffffffffffffff16036127ac57816040517f7e2732890000000000000000000000000000000000000000000000000000000081526004016127a39190613cca565b60405180910390fd5b5050565b600073ffffffffffffffffffffffffffffffffffffffff168273ffffffffffffffffffffffffffffffffffffffff16036128225760006040517f64a0ae9200000000000000000000000000000000000000000000000000000000815260040161281991906137cb565b60405180910390fd5b6000612830838360006123bb565b9050600073ffffffffffffffffffffffffffffffffffffffff168173ffffffffffffffffffffffffffffffffffffffff16036128a357816040517f7e27328900000000000000000000000000000000000000000000000000000000815260040161289a9190613cca565b60405180910390fd5b8373ffffffffffffffffffffffffffffffffffffffff168173ffffffffffffffffffffffffffffffffffffffff1614612917578382826040517f64283d7b00000000000000000000000000000000000000000000000000000000815260040161290e93929190614161565b60405180910390fd5b50505050565b6129256123a1565b73ffffffffffffffffffffffffffffffffffffffff16612943611961565b73ffffffffffffffffffffffffffffffffffffffff16146129a2576129666123a1565b6040517f118cdaa700000000000000000000000000000000000000000000000000000000815260040161299991906137cb565b60405180910390fd5b565b6000600760009054906101000a900473ffffffffffffffffffffffffffffffffffffffff16905081600760006101000a81548173ffffffffffffffffffffffffffffffffffffffff021916908373ffffffffffffffffffffffffffffffffffffffff1602179055508173ffffffffffffffffffffffffffffffffffffffff168173ffffffffffffffffffffffffffffffffffffffff167f8be0079c531659141344cd1fd0a4f28419497f9722a3daafe3b4186f6b6457e060405160405180910390a35050565b600073ffffffffffffffffffffffffffffffffffffffff168273ffffffffffffffffffffffffffffffffffffffff1603612adb57816040517f5b08ba18000000000000000000000000000000000000000000000000000000008152600401612ad291906137cb565b60405180910390fd5b80600560008573ffffffffffffffffffffffffffffffffffffffff1673ffffffffffffffffffffffffffffffffffffffff16815260200190815260200160002060008473ffffffffffffffffffffffffffffffffffffffff1673ffffffffffffffffffffffffffffffffffffffff16815260200190815260200160002060006101000a81548160ff0219169083151502179055508173ffffffffffffffffffffffffffffffffffffffff168373ffffffffffffffffffffffffffffffffffffffff167f17307eab39ab6107e8899845ad3d59bd9653f200f220920489ca2b5937696c3183604051612bcc9190613638565b60405180910390a3505050565b60008373ffffffffffffffffffffffffffffffffffffffff163b1115612d8a578273ffffffffffffffffffffffffffffffffffffffff1663150b7a02612c1d6123a1565b8685856040518563ffffffff1660e01b8152600401612c3f9493929190614ae9565b6020604051808303816000875af1925050508015612c7b57506040513d601f19601f82011682018060405250810190612c789190614b4a565b60015b612cff573d8060008114612cab576040519150601f19603f3d011682016040523d82523d6000602084013e612cb0565b606091505b506000815103612cf757836040517f64a0ae92000000000000000000000000000000000000000000000000000000008152600401612cee91906137cb565b60405180910390fd5b805181602001fd5b63150b7a0260e01b7bffffffffffffffffffffffffffffffffffffffffffffffffffffffff1916817bffffffffffffffffffffffffffffffffffffffffffffffffffffffff191614612d8857836040517f64a0ae92000000000000000000000000000000000000000000000000000000008152600401612d7f91906137cb565b60405180910390fd5b505b50505050565b606060405180602001604052806000815250905090565b6060612db2826122dc565b506000612dbd612d90565b90506000815111612ddd5760405180602001604052806000815250612e08565b80612de784613140565b604051602001612df8929190614a70565b6040516020818303038152906040525b915050919050565b60007f01ffc9a7000000000000000000000000000000000000000000000000000000007bffffffffffffffffffffffffffffffffffffffffffffffffffffffff1916827bffffffffffffffffffffffffffffffffffffffffffffffffffffffff1916149050919050565b60006002600083815260200190815260200160002060009054906101000a900473ffffffffffffffffffffffffffffffffffffffff169050919050565b8080612ef05750600073ffffffffffffffffffffffffffffffffffffffff168273ffffffffffffffffffffffffffffffffffffffff1614155b15613024576000612f00846122dc565b9050600073ffffffffffffffffffffffffffffffffffffffff168373ffffffffffffffffffffffffffffffffffffffff1614158015612f6b57508273ffffffffffffffffffffffffffffffffffffffff168173ffffffffffffffffffffffffffffffffffffffff1614155b8015612f7e5750612f7c81846120e0565b155b15612fc057826040517fa9fbf51f000000000000000000000000000000000000000000000000000000008152600401612fb791906137cb565b60405180910390fd5b811561302257838573ffffffffffffffffffffffffffffffffffffffff168273ffffffffffffffffffffffffffffffffffffffff167f8c5be1e5ebec7d5bd14f71427d1e84f3dd0314c0f7b2291e5b200ac8c7c3b92560405160405180910390a45b505b836004600085815260200190815260200160002060006101000a81548173ffffffffffffffffffffffffffffffffffffffff021916908373ffffffffffffffffffffffffffffffffffffffff16021790555050505050565b61308783838361320e565b61313b57600073ffffffffffffffffffffffffffffffffffffffff168373ffffffffffffffffffffffffffffffffffffffff16036130fc57806040517f7e2732890000000000000000000000000000000000000000000000000000000081526004016130f39190613cca565b60405180910390fd5b81816040517f177e802f000000000000000000000000000000000000000000000000000000008152600401613132929190614b77565b60405180910390fd5b505050565b60606000600161314f846132cf565b01905060008167ffffffffffffffff81111561316e5761316d6138af565b5b6040519080825280601f01601f1916602001820160405280156131a05781602001600182028036833780820191505090505b509050600082602001820190505b600115613203578080600190039150507f3031323334353637383961626364656600000000000000000000000000000000600a86061a8153600a85816131f7576131f6614ba0565b5b049450600085036131ae575b819350505050919050565b60008073ffffffffffffffffffffffffffffffffffffffff168373ffffffffffffffffffffffffffffffffffffffff16141580156132c657508273ffffffffffffffffffffffffffffffffffffffff168473ffffffffffffffffffffffffffffffffffffffff161480613287575061328684846120e0565b5b806132c557508273ffffffffffffffffffffffffffffffffffffffff166132ad83612364565b73ffffffffffffffffffffffffffffffffffffffff16145b5b90509392505050565b600080600090507a184f03e93ff9f4daa797ed6e38ed64bf6a1f010000000000000000831061332d577a184f03e93ff9f4daa797ed6e38ed64bf6a1f010000000000000000838161332357613322614ba0565b5b0492506040810190505b6d04ee2d6d415b85acef8100000000831061336a576d04ee2d6d415b85acef810000000083816133605761335f614ba0565b5b0492506020810190505b662386f26fc10000831061339957662386f26fc10000838161338f5761338e614ba0565b5b0492506010810190505b6305f5e10083106133c2576305f5e10083816133b8576133b7614ba0565b5b0492506008810190505b61271083106133e75761271083816133dd576133dc614ba0565b5b0492506004810190505b6064831061340a5760648381613400576133ff614ba0565b5b0492506002810190505b600a8310613419576001810190505b80915050919050565b8280548282559060005260206000209060020281019282156134885760005260206000209160020282015b828111156134875782826000820181600001908161346b9190614504565b506001820154816001015550509160020191906002019061344d565b5b509050613495919061355a565b5090565b5080546134a590614130565b6000825580601f106134b757506134d6565b601f0160209004906000526020600020908101906134d59190613589565b5b50565b50805460008255600202906000526020600020908101906134fa919061355a565b50565b6040518061010001604052806000815260200160608152602001600073ffffffffffffffffffffffffffffffffffffffff168152602001600081526020016000151581526020016060815260200160008152602001606081525090565b5b8082111561358557600080820160006135749190613499565b60018201600090555060020161355b565b5090565b5b808211156135a257600081600090555060010161358a565b5090565b6000604051905090565b600080fd5b600080fd5b6000819050919050565b6135cd816135ba565b81146135d857600080fd5b50565b6000813590506135ea816135c4565b92915050565b600060208284031215613606576136056135b0565b5b6000613614848285016135db565b91505092915050565b60008115159050919050565b6136328161361d565b82525050565b600060208201905061364d6000830184613629565b92915050565b60007fffffffff0000000000000000000000000000000000000000000000000000000082169050919050565b61368881613653565b811461369357600080fd5b50565b6000813590506136a58161367f565b92915050565b6000602082840312156136c1576136c06135b0565b5b60006136cf84828501613696565b91505092915050565b600081519050919050565b600082825260208201905092915050565b60005b838110156137125780820151818401526020810190506136f7565b60008484015250505050565b6000601f19601f8301169050919050565b600061373a826136d8565b61374481856136e3565b93506137548185602086016136f4565b61375d8161371e565b840191505092915050565b60006020820190508181036000830152613782818461372f565b905092915050565b600073ffffffffffffffffffffffffffffffffffffffff82169050919050565b60006137b58261378a565b9050919050565b6137c5816137aa565b82525050565b60006020820190506137e060008301846137bc565b92915050565b6137ef816137aa565b81146137fa57600080fd5b50565b60008135905061380c816137e6565b92915050565b60008060408385031215613829576138286135b0565b5b6000613837858286016137fd565b9250506020613848858286016135db565b9150509250929050565b60008060006060848603121561386b5761386a6135b0565b5b6000613879868287016137fd565b935050602061388a868287016137fd565b925050604061389b868287016135db565b9150509250925092565b600080fd5b600080fd5b7f4e487b7100000000000000000000000000000000000000000000000000000000600052604160045260246000fd5b6138e78261371e565b810181811067ffffffffffffffff82111715613906576139056138af565b5b80604052505050565b60006139196135a6565b905061392582826138de565b919050565b600067ffffffffffffffff821115613945576139446138af565b5b61394e8261371e565b9050602081019050919050565b82818337600083830152505050565b600061397d6139788461392a565b61390f565b905082815260208101848484011115613999576139986138aa565b5b6139a484828561395b565b509392505050565b600082601f8301126139c1576139c06138a5565b5b81356139d184826020860161396a565b91505092915050565b6000806000606084860312156139f3576139f26135b0565b5b600084013567ffffffffffffffff811115613a1157613a106135b5565b5b613a1d868287016139ac565b935050602084013567ffffffffffffffff811115613a3e57613a3d6135b5565b5b613a4a868287016139ac565b9250506040613a5b868287016135db565b9150509250925092565b613a6e816135ba565b82525050565b600082825260208201905092915050565b6000613a90826136d8565b613a9a8185613a74565b9350613aaa8185602086016136f4565b613ab38161371e565b840191505092915050565b613ac7816137aa565b82525050565b613ad68161361d565b82525050565b600081519050919050565b600082825260208201905092915050565b6000819050602082019050919050565b60006040830160008301518482036000860152613b258282613a85565b9150506020830151613b3a6020860182613a65565b508091505092915050565b6000613b518383613b08565b905092915050565b6000602082019050919050565b6000613b7182613adc565b613b7b8185613ae7565b935083602082028501613b8d85613af8565b8060005b85811015613bc95784840389528151613baa8582613b45565b9450613bb583613b59565b925060208a01995050600181019050613b91565b50829750879550505050505092915050565b600061010083016000830151613bf46000860182613a65565b5060208301518482036020860152613c0c8282613a85565b9150506040830151613c216040860182613abe565b506060830151613c346060860182613a65565b506080830151613c476080860182613acd565b5060a083015184820360a0860152613c5f8282613a85565b91505060c0830151613c7460c0860182613a65565b5060e083015184820360e0860152613c8c8282613b66565b9150508091505092915050565b60006020820190508181036000830152613cb38184613bdb565b905092915050565b613cc4816135ba565b82525050565b6000602082019050613cdf6000830184613cbb565b92915050565b600060208284031215613cfb57613cfa6135b0565b5b6000613d09848285016137fd565b91505092915050565b600060e082019050613d27600083018a613cbb565b8181036020830152613d39818961372f565b9050613d4860408301886137bc565b613d556060830187613cbb565b613d626080830186613629565b81810360a0830152613d74818561372f565b9050613d8360c0830184613cbb565b98975050505050505050565b613d988161361d565b8114613da357600080fd5b50565b600081359050613db581613d8f565b92915050565b60008060408385031215613dd257613dd16135b0565b5b6000613de0858286016137fd565b9250506020613df185828601613da6565b9150509250929050565b600067ffffffffffffffff821115613e1657613e156138af565b5b613e1f8261371e565b9050602081019050919050565b6000613e3f613e3a84613dfb565b61390f565b905082815260208101848484011115613e5b57613e5a6138aa565b5b613e6684828561395b565b509392505050565b600082601f830112613e8357613e826138a5565b5b8135613e93848260208601613e2c565b91505092915050565b60008060008060808587031215613eb657613eb56135b0565b5b6000613ec4878288016137fd565b9450506020613ed5878288016137fd565b9350506040613ee6878288016135db565b925050606085013567ffffffffffffffff811115613f0757613f066135b5565b5b613f1387828801613e6e565b91505092959194509250565b600081519050919050565b600082825260208201905092915050565b6000819050602082019050919050565b600061010083016000830151613f646000860182613a65565b5060208301518482036020860152613f7c8282613a85565b9150506040830151613f916040860182613abe565b506060830151613fa46060860182613a65565b506080830151613fb76080860182613acd565b5060a083015184820360a0860152613fcf8282613a85565b91505060c0830151613fe460c0860182613a65565b5060e083015184820360e0860152613ffc8282613b66565b9150508091505092915050565b60006140158383613f4b565b905092915050565b6000602082019050919050565b600061403582613f1f565b61403f8185613f2a565b93508360208202850161405185613f3b565b8060005b8581101561408d578484038952815161406e8582614009565b94506140798361401d565b925060208a01995050600181019050614055565b50829750879550505050505092915050565b600060208201905081810360008301526140b9818461402a565b905092915050565b600080604083850312156140d8576140d76135b0565b5b60006140e6858286016137fd565b92505060206140f7858286016137fd565b9150509250929050565b7f4e487b7100000000000000000000000000000000000000000000000000000000600052602260045260246000fd5b6000600282049050600182168061414857607f821691505b60208210810361415b5761415a614101565b5b50919050565b600060608201905061417660008301866137bc565b6141836020830185613cbb565b61419060408301846137bc565b949350505050565b7f596f752061726520746865206d616e6167657221000000000000000000000000600082015250565b60006141ce6014836136e3565b91506141d982614198565b602082019050919050565b600060208201905081810360008301526141fd816141c1565b9050919050565b7f596f752061726520746865206d616e6765722100000000000000000000000000600082015250565b600061423a6013836136e3565b915061424582614204565b602082019050919050565b600060208201905081810360008301526142698161422d565b9050919050565b60008190508160005260206000209050919050565b60006020601f8301049050919050565b600082821b905092915050565b6000600883026142d27fffffffffffffffffffffffffffffffffffffffffffffffffffffffffffffffff82614295565b6142dc8683614295565b95508019841693508086168417925050509392505050565b6000819050919050565b600061431961431461430f846135ba565b6142f4565b6135ba565b9050919050565b6000819050919050565b614333836142fe565b61434761433f82614320565b8484546142a2565b825550505050565b600090565b61435c61434f565b61436781848461432a565b505050565b5b8181101561438b57614380600082614354565b60018101905061436d565b5050565b601f8211156143d0576143a181614270565b6143aa84614285565b810160208510156143b9578190505b6143cd6143c585614285565b83018261436c565b50505b505050565b600082821c905092915050565b60006143f3600019846008026143d5565b1980831691505092915050565b600061440c83836143e2565b9150826002028217905092915050565b614425826136d8565b67ffffffffffffffff81111561443e5761443d6138af565b5b6144488254614130565b61445382828561438f565b600060209050601f8311600181146144865760008415614474578287015190505b61447e8582614400565b8655506144e6565b601f19841661449486614270565b60005b828110156144bc57848901518255600182019150602085019450602081019050614497565b868310156144d957848901516144d5601f8916826143e2565b8355505b6001600288020188555050505b505050505050565b6000815490506144fd81614130565b9050919050565b8181036145125750506145ea565b61451b826144ee565b67ffffffffffffffff811115614534576145336138af565b5b61453e8254614130565b61454982828561438f565b6000601f8311600181146145785760008415614566578287015490505b6145708582614400565b8655506145e3565b601f19841661458687614270565b965061459186614270565b60005b828110156145b957848901548255600182019150600185019450602081019050614594565b868310156145d657848901546145d2601f8916826143e2565b8355505b6001600288020188555050505b5050505050505b565b7f4e487b7100000000000000000000000000000000000000000000000000000000600052601160045260246000fd5b6000614626826135ba565b91507fffffffffffffffffffffffffffffffffffffffffffffffffffffffffffffffff8203614658576146576145ec565b5b600182019050919050565b7f5265676973746572656400000000000000000000000000000000000000000000600082015250565b6000614699600a836136e3565b91506146a482614663565b602082019050919050565b600060408201905081810360008301526146c88161468c565b90506146d76020830184613cbb565b92915050565b7f596f7520617265206e6f7420746865206d616e61676572210000000000000000600082015250565b60006147136018836136e3565b915061471e826146dd565b602082019050919050565b6000602082019050818103600083015261474281614706565b9050919050565b7f596f7520617265206e6f7420746865206d616e67657221000000000000000000600082015250565b600061477f6017836136e3565b915061478a82614749565b602082019050919050565b600060208201905081810360008301526147ae81614772565b9050919050565b7f50726f6475637420494420646f6573206e6f7420657869737400000000000000600082015250565b60006147eb6019836136e3565b91506147f6826147b5565b602082019050919050565b6000602082019050818103600083015261481a816147de565b9050919050565b7f5468652070726f6475637420686173206265656e207075726368617365640000600082015250565b6000614857601e836136e3565b915061486282614821565b602082019050919050565b600060208201905081810360008301526148868161484a565b9050919050565b7f496e636f7272656374207061796d656e7420616d6f756e740000000000000000600082015250565b60006148c36018836136e3565b91506148ce8261488d565b602082019050919050565b600060208201905081810360008301526148f2816148b6565b9050919050565b7f42757965722063616e6e6f74206265207468652063757272656e74206f776e6560008201527f7200000000000000000000000000000000000000000000000000000000000000602082015250565b60006149556021836136e3565b9150614960826148f9565b604082019050919050565b6000602082019050818103600083015261498481614948565b9050919050565b7f5075726368617365640000000000000000000000000000000000000000000000600082015250565b60006149c16009836136e3565b91506149cc8261498b565b602082019050919050565b600060408201905081810360008301526149f0816149b4565b90506149ff6020830184613cbb565b92915050565b7f4e487b7100000000000000000000000000000000000000000000000000000000600052603260045260246000fd5b600081905092915050565b6000614a4a826136d8565b614a548185614a34565b9350614a648185602086016136f4565b80840191505092915050565b6000614a7c8285614a3f565b9150614a888284614a3f565b91508190509392505050565b600081519050919050565b600082825260208201905092915050565b6000614abb82614a94565b614ac58185614a9f565b9350614ad58185602086016136f4565b614ade8161371e565b840191505092915050565b6000608082019050614afe60008301876137bc565b614b0b60208301866137bc565b614b186040830185613cbb565b8181036060830152614b2a8184614ab0565b905095945050505050565b600081519050614b448161367f565b92915050565b600060208284031215614b6057614b5f6135b0565b5b6000614b6e84828501614b35565b91505092915050565b6000604082019050614b8c60008301856137bc565b614b996020830184613cbb565b9392505050565b7f4e487b7100000000000000000000000000000000000000000000000000000000600052601260045260246000fdfea264697066735822122067fe824b512d7c8d2ca43baf1bae6268132658198e1fc33389256b71a1e18bd064736f6c63430008180033",
  "linkReferences": {},
  "deployedLinkReferences": {}
}